S01800004469676974616C436C6F636B563031352E7372656376
S11300000C94CD020C9432080C94EA020C94EA028B
S11300100C94EA020C94EA020C94EA020C94EA02AC
S11300200C94EA020C94EA020C94EA020C94EA029C
S11300300C94EA020C94EA020C94EA020C94EA028C
S11300400C945E080C94EA020C94AF0B0C94910B84
S11300500C94EA020C94EA020C94EA020C94EA026C
S11300600C94EA020C94EA026E616E00696E6600FA
S113007000407A10F35A00A0724E18090010A5D45B
S1130080E80000E87648170000E40B54020000CAB8
S11300909A3B000000E1F5050000809698000000FE
S11300A040420F000000A08601000000102700005D
S11300B00000E803000000006400000000000A00E3
S11300C0000000000100000000002C76D888DC67E6
S11300D04F0823DFC1DFAE59E1B1B796E5E3E4533E
S11300E0C63AE651997696E8E6C28426EB898C9B5B
S11300F062ED407C6FFCEFBC9C9F40F2BAA56FA5FB
S1130100F490055A2AF75C936B6CF9676DC11BFC7C
S1130110E0E40D47FEF520E6B500D0ED902E030097
S1130120943577050080841E080000204E0A0000E4
S113013000C80C333333330F986E12831141EF8DA3
S11301402114893BE65516CFFEE6DB18D1844B38E3
S11301501BF77C1D901DA4BBE424203284725E2214
S11301608100C9F124ECA1E53D27BC5F9C60A4613A
S11301708462B6639664B0659F66B5678968A96949
S1130180FFFF0000000000000000002F000000003E
S11301900700070000147F147F1400242A7F2A120A
S11301A000626408132300364955225000000503F9
S11301B0000000001C224100000041221C00001429
S11301C0083E08140008083E0808000000A060006B
S11301D000080808080800006060000000201008FB
S11301E00402003E5149453E0000427F4000004267
S11301F061514946002141454B31001814127F10CA
S1130200002745454539003C4A49493000017109F8
S1130210050300364949493600064949291E0000AC
S11302203636000000005636000000081422410053
S11302300014141414140000412214080002015183
S1130240090600324959513E007C1211127C007F8C
S113025049494936003E41414122007F4141221C27
S1130260007F49494941007F09090901003E41498C
S1130270497A007F0808087F0000417F4100002080
S113028040413F01007F08142241007F404040402C
S1130290007F020C027F007F0408107F003E414172
S11302A0413E007F09090906003E4151215E007F5D
S11302B0091929460046494949310001017F0101D4
S11302C0003F4040403F001F2040201F003F403877
S11302D0403F0063140814630007087008070061B6
S11302E05149454300007F41410000552A552A5594
S11302F0000041417F00000402010204004040402C
S11303004040000001020400002054545478007F4F
S11303104844443800384444442000384444487F26
S113032000385454541800087E0901020018A4A48B
S1130330A47C007F080404780000447D4000004051
S113034080847D00007F102844000000417F40002D
S1130350007C04180478007C0804047800384444C1
S1130360443800FC242424180018242418FC007C9D
S11303700804040800485454542000043F44402016
S1130380003C4040207C001C2040201C003C4030AD
S1130390403C004428102844001CA0A0A07C004439
S11303A064544C44000008774100000000630000DE
S11303B0000041770800000804080804003A40409F
S11303C0207A003D4040403D002154545479007D42
S11303D01211127D003944444439003D4242423DE9
S11303E0000205020000007E01495573007C1010D4
S11303F0081C003048204830005C6202625C0D1B1F
S11304005B324B001B5B306D004F4C4544207265E2
S113041061647921001B5B313B33336D3E496E6966
S11304207469616C697A696E67204F4C4544204455
S11304306973706C61790D0A001B5B313B33326D5B
S11304403E525443206D6F64756C6520526561643F
S1130450790D0A000D0A001B5B303B33336D3E53AC
S1130460746174757320726567697374657220763C
S1130470616C75653A203078000D0A001B5B303BD7
S113048033336D3E436F6E74726F6C2072656769AF
S1130490737465722076616C75653A203078001B40
S11304A05B313B33316D3E525443206973206E6F90
S11304B07420726573706F6E64696E670D0A001B39
S11304C05B303B33336D3E57616974696E672066F8
S11304D06F72206D6F64756C6520726573706F6EDA
S11304E073652E2E2E0D0A001B5B313B33336D3E9C
S11304F0496E697469616C697A696E672044533323
S1130500323331205254430D0A001B5B313B3333E9
S11305106D3E496E697469616C697A696E672049D8
S113052032430D0A001B5B313B33326D3E55534160
S113053052542052656164790D0A001B5B324A1BD8
S11305405B4800AE2000B0C8001040813FA1A6A8BF
S11305503FA4D300D5F0D922DA12DB208D145375D1
S11305606E4D6F6E5475655765645468754672694F
S1130570536174004A616E4665624D6172417072E6
S11305804D61794A756E4A756C4175675365704F54
S113059063744E6F76446563000011241FBECFEF71
S11305A0D8E0DEBFCDBF11E0A0E0B1E0EAEBF5E2B8
S11305B002C005900D92AE31B107D9F721E0AEE14A
S11305C0B1E001C01D92A63AB207E1F70E943C07D0
S11305D00C94DB120C940000ACE0B0E0E2EFF2E02B
S11305E00C946610BE016F5F7F4F0E9407036091F9
S11305F0000170910101CE0101960E94AE03809129
S11306000001909101012C96E2E00C948210A4E088
S1130610B0E0EDE0F3E00C9460106C017B01E0913C
S1130620A401F091A501309729F066E871E00995DD
S11306308C0102C00FEF1FEFF601408151816281EE
S113064073818091860190918701A0918801B09176
S11306508901840F951FA61FB71F101611064CF4AD
S1130660A801012E000C660B770B840F951FA61FA3
S1130670B71F89839A83AB83BC83B701CE010196EC
S11306800E942C04F701138702872496E8E00C9457
S11306907C10A4E0B0E0EFE4F3E00C9460108C0173
S11306A00E94070569837A838B839C83F801828582
S11306B0938597FF0EC0E091A401F091A5013097B6
S11306C041F066E871E0CE0101960995F80193873F
S11306D08287F801828593851816190694F4092EE9
S11306E0000CAA0BBB0B49815A816B817C816A0186
S11306F07B01C81AD90AEA0AFB0AC982DA82EB82A8
S1130700FC8289819A81AB81BC81409186015091A0
S113071087016091880170918901841B950BA60B58
S1130720B70B89839A83AB83BC83B801CE0101964E
S11307300E94070369817A818B819C812496E8E079
S11307400C947C100FB6F89460938201709383012B
S113075080938401909385010FBE0895A0E0B0E0DA
S1130760E4EBF3E00C9460108C01EB01FC01848158
S1130770682F660F680F8581582F550F580F9E01FB
S113078040E0862F840F90E0A0E0825A9A4FAF4F4A
S1130790FC018491A7FD8081F90181939F01852F3C
S11307A0840F90E0A0E08C589A4FAF4FFC018491E5
S11307B0A7FD8081F90183834F5F433011F780E205
S11307C08F838B83BE01685F7F4FF801838140E292
S11307D0082E000C990B0E94B205BE01655F7F4F85
S11307E0F80182814AE3082E000C990B0E94B2059D
S11307F0BE01625F7F4FF80181814AE3082E000C3D
S1130800990B0E94B205BE016F5E7F4FF801808193
S113081040E2082E000C990B0E94B205F801868173
S1130820978164E670E08459984F0E9442106B01EE
S11308307C01BE016C5E7F4F40E2C6010E94B2059E
S1130840BE016A5E7F4F40E0C7010E94B205CDB78A
S1130850DEB7E8E00C947C10A8E0B0E0E2E3F4E05A
S11308600C9460108B01FC01608171818281938101
S113087020E831E541E050E00E94791269017A01F3
S11308802CE330E040E050E00E949B1229833A833D
S11308904B835C8389819A81AB81BC81F80160833D
S11308A06CE370E00E944210DC01CB01F801A183EB
S11308B08283C601069667E070E00E948D108483EF
S11308C02DEA3EE840E050E0C701B6010E949B12C9
S11308D029833A836D837E838F83988789819A8164
S11308E024E6289F6001299FD00C11246D817E810C
S11308F08F81988525EB35E040E050E00E949B1203
S113090029833A836D837E83E980FA80EE0CFF1C91
S1130910EE0CFF1CEC0CFD1C8D819E81F5E6EF16A0
S1130920F10410F0019604C024E6E216F10419F073
S113093021E030E002C020E030E0A90144595E4FDC
S11309404817590768F46DE671E0821B930B0E9407
S11309504210DC01CB01E80EF91ECD0120E030E0AD
S113096044E6E40EF11CF801F782E6829187808761
S1130970255C3F4F8217930748F46FE170E00E94B3
S11309804210DC01CB01F801858322C069E970E0E3
S1130990821B930B0E944210DC01CB01F82EFF0C4A
S11309A0FF0CF80E6DE370E0CD010E944210DC01F3
S11309B0CB01E82EEE0C6FE170E0CD010E944210F5
S11309C0DC01CB0122E0280FF20EFE0CF801F582C7
S11309D0A383F8011386128683818F5F838328960D
S11309E0E8E00C947C109C0123703327232B59F4EA
S11309F064E670E00E944210892B39F46370772713
S1130A0081E0672B19F080E0089581E00895A0E06B
S1130A10B0E0EDE0F5E00C945C10EC01EE81FF81B8
S1130A208F0104561109B9F0CF01855691096C0163
S1130A3097FF03C023E0C20ED11CD594C794D5946C
S1130A40C7946CE97FEF0E944210C60ED71E8FEF49
S1130A50C81AD80A02C0C12CD12C2DE631E0D80125
S1130A600E94BA120D2C000CEE08FF08C60ED71E09
S1130A70E81EF91E8B81082E000C990B8C01015085
S1130A8011092D8122302CF4222379F1015E1F4FAC
S1130A902CC0CF018459984F0E94F304282F30E0D2
S1130AA0255C3F4F200F311F8D81082E000C990BC0
S1130AB002978530910514F027563F4F65E070E0AA
S1130AC00E944210AC0197FF02C04F5F5F4F5595E3
S1130AD047959DE3949F8001959F100D1124020F6B
S1130AE0131F80FF02C0015E1F4FC801110FAA0B24
S1130AF0BB0B9C01AD012C0D3D1D4E1D5F1D60E81F
S1130B0071E581E090E00E9469124B015C01AA81C9
S1130B100A2E000CBB0B20E13EE00E94BA126B01CE
S1130B207C01A9810A2E000CBB0B2CE330E00E944F
S1130B30BA12C60ED71EE81EF91E6881862F660FEC
S1130B40990BAA0BBB0B8C0D9D1DAE1DBF1DBC01CB
S1130B50CD01680D791D8A1D9B1DCDB7DEB7ECE074
S1130B600C9478101F93CF93DF93EB01142F6AE05A
S1130B7070E00E944210605D6883805D89831A83FF
S1130B80DF91CF911F910895982F92959F70990F9F
S1130B90292F220F220F920F8F70890F0895CF9360
S1130BA0DF93D82FC62F80ED0E94C4068D2F0E949C
S1130BB0F5068C2F0E94F5060E94F106DF91CF9175
S1130BC00895CF93C82F80ED0E94C4068C2F0E94F5
S1130BD0F5060E94F10681ED0E94C4060E942407D6
S1130BE0C82F0E94F1068C2FCF910895CF93DF93E5
S1130BF0D82F82E00E94E105C82F86FB882780F960
S1130C008D1761F0C06480ED0E94C40682E00E94EA
S1130C10F5068C2F0E94F5060E94F106DF91CF9114
S1130C20089582E00E94E10586FB882780F90895F3
S1130C3085E00E94E10587FB882780F9089580E01C
S1130C400E94E1050E94C405089581E00E94E10527
S1130C500E94C4050895CF9382E00E94E105C82F45
S1130C600E941106882339F0C4FB882780F98295F5
S1130C70807FCF70C82B8C2F0E94C405CF9108951C
S1130C8084E00E94E1050E94C405089585E00E9465
S1130C90E1058F77089586E00E94E1050E94C4056E
S1130CA0089590E08053984F0895CF93DF930E9466
S1130CB04B060E945106EC010E941806882311F08D
S1130CC0CC59DF4FCE01DF91CF9108951F93CF937D
S1130CD0DF93EC010E941106182F882319F080E09D
S1130CE00E94F6050E941F0688830E9425068983B8
S1130CF00E942B068A830E9440068B830E9446062C
S1130D0081508D830E9455068C5697409F838E8315
S1130D10112319F081E00E94F605DF91CF911F9114
S1130D200895CF93DF9380ED0E94C40681E10E9471
S1130D30F5060E94F10681ED0E94C4060E940C078C
S1130D40C82F0E942407D82F0E94F1066C2F70E050
S1130D50762F6627D07C6D2B072E000C880B990B01
S1130D600E94CC0B20E030E040E85BE30E94070CDB
S1130D70DF91CF9108951092B9008CE08093B80070
S1130D8084E08093BC00089594EA9093BC0020E52D
S1130D9030E009C02150310931F48091270181608C
S1130DA08093270108959091BC0099231CF021158C
S1130DB0310581F78093BB0084E88093BC0080E513
S1130DC090E008C0019731F48091270182608093FC
S1130DD0270108952091BC00222314F0009791F775
S1130DE0089584E98093BC0008958093BB0084E84F
S1130DF08093BC0080E590E008C0019731F48091B5
S1130E00270184608093270108952091BC00222348
S1130E1014F0009791F7089584EC8093BC0080E56A
S1130E2090E009C0019739F480912701886080938C
S1130E30270180E008952091BC00222314F000973C
S1130E4089F78091BB00089584E88093BC0080E515
S1130E5090E009C0019739F4809127018061809363
S1130E60270180E008952091BC00222314F000970C
S1130E7089F78091BB000895CF93DF93CDB7DEB798
S1130E80E1970FB6F894DEBF0FBECDBF8AB18B7F5A
S1130E908AB983E08093690014BC85BD81E08DBB71
S1130EA080936E0084B1806284B988E08093C4002A
S1130EB01092C50088E98093C100ECE7F1E087E077
S1130EC091E0938382839183808378948BE395E08C
S1130ED00E945F0B85E295E00E945F0B8AE095E03B
S1130EE00E945F0B0E94BB0688EE94E00E945F0B99
S1130EF08FEB94E00E945F0B8EE00E94E105182FB7
S1130F008F878FE00E94E105082F112311F160E023
S1130F108EE00E94CF0510922401109221011092BC
S1130F2020010FC08091200190912101893E9340BE
S1130F3040F010922101109220018FE994E00E9468
S1130F405F0B80912401882369F38EE00E94E10500
S1130F508F8760E08EE00E94CF058CE794E00E94CA
S1130F605F0B8F8540E1BE016C5E7F4F90E00E9475
S1130F708F11CE0144960E94500B89E794E00E94A1
S1130F805F0B87E594E00E945F0B40E1BE016C5E5D
S1130F907F4F802F90E00E948F11CE0144960E94D3
S1130FA0500B84E594E00E945F0B89E394E00E9477
S1130FB05F0B85E194E00E945F0B8FEA0E94390980
S1130FC089E094E00E94160B84E094E00E945F0B99
S1130FD00E940A0980910201909103010E94660611
S1130FE01092330110923201809102019091030119
S1130FF00E94490360933401709335018093360154
S1131000909337010E94A20310922401809124013D
S11310108823E1F3809124018823E1F310922401D1
S11310208EEF93E00E945F0B0E949106162F072F0C
S1131030F82EE92E80910401909105010E94EC02A2
S1131040EF92FF920F931F939F938F9385E191E00B
S11310509F938F930E94E5110FB6F894DEBF0FBEE5
S1131060CDBFD8CF1F920F920FB60F9211248F933A
S11310709F93AF93BF9381E08093240180913401C7
S113108090913501A0913601B09137010196A11DCF
S1131090B11D8093340190933501A0933601B09330
S11310A0370195B180E2892785B9BF91AF919F91AE
S11310B08F910F900FBE0F901F9018951F920F9253
S11310C00FB60F9211248F939F93809122019091D8
S11310D023010196909323018093220180912001A2
S11310E09091210101969093210180932001809198
S11310F01E0190911F01019690931F0180931E0180
S11311009F918F910F900FBE0F901F9018950F9382
S11311101F93CF93DF938C01D62F88E70E94C406D8
S113112080E00E94F506C0E007C0F801EC0FF11D55
S113113080810E94F506CF5FCD17B8F30E94F106B7
S1131140DF91CF911F910F910895EF92FF920F932A
S11311501F93CF93DF937C018B0188E70E94C40621
S113116080E40E94F506C0E0D0E007C0F701EC0F70
S1131170FD1F80810E94F5062196C017D107B0F3A8
S11311800E94F106DF91CF911F910F91FF90EF9094
S11311900895CF93DF9300D000D01F92CDB7DEB770
S11311A0813818F5683008F5E5E2F1E08083618361
S11311B06055698391E29A8392E0980F9F709B83B4
S11311C090E00296807F99279595879595958795C8
S11311D09595879595958795805F8C838FE78D830B
S11311E065E0CE0101960E9487080F900F900F9042
S11311F00F900F90DF91CF910895982F990F980F2A
S1131200892F880F0E94C908089560E080E00E9439
S1131210FD0808951F93CF93DF93CDB7DEB7C05871
S1131220D1090FB6F894DEBF0FBECDBFFE013196D3
S113123080E8DF011D928A95E9F710E00BC0612F69
S113124080E00E94FD0860E870E0CE0101960E94F3
S1131250A5081F5F183098F30E940509C058DF4F96
S11312600FB6F894DEBF0FBECDBFDF91CF911F91B3
S113127008951F93CF93DF93CDB7DEB76C970FB666
S1131280F894DEBF0FBECDBF182F0E94BB0620E02E
S11312900EC0822F90E0FC01ED5BFA4FE491A1E0D7
S11312A0B0E0AC0FBD1FA80FB91FEC932F5F2B311B
S11312B080F31C8F6CE1CE0101960E9487080E9486
S11312C00A096C960FB6F894DEBF0FBECDBFDF914E
S11312D0CF911F910895CF92DF92EF92FF920F93D7
S11312E01F93CF93DF93CDB7DEB76D970FB6F89406
S11312F0DEBF0FBECDBF8930F9F018F4883031F06D
S113130044C08A3079F18D30D1F13FC005E211E05B
S1131310F8018081909106016181891B0E94FD087A
S113132080E20E946B09F80180819091060161813D
S1131330891B0E94FD086BC18091250190910601D3
S1131340990F990F890F25E1291B821728F46091C1
S113135026010E94FD085BC16091260185E10E947F
S1131360FD0855C180912601873008F050C1609175
S11313700601680F809125010E94FD0848C1609113
S1131380260180E00E94FD0842C1509125015A3790
S113139008F03DC1803208F43AC18052EBE6F1E036
S11313A0E4918E1798F423C0F901EE0FFF1FE6595C
S11313B0FE4FE491F0E0B097282F30E0E217F307F6
S11313C019F4FB01849110C09F5F01C090E0292FA4
S11313D030E0F901EE0FFF1FBF0165597E4FFB019D
S11313E044914F3F09F78FEF8F3F09F410C190915B
S11313F00601923009F0DDC0252F30E0245F3F4F15
S11314002138310508F003C1F12C4FC06F2D70E075
S1131410FB01EE0FFF1F21E030E02C0F3D1FE20F18
S1131420F31F15861486282F30E0F901EE0FFF1FF5
S1131430E20FF31FEE0FFF1FE60FF71FEE57FE4FED
S1131440E49090E02FC0A92FB0E02E2D30E0092EBB
S113145002C0359527950A94E2F720FF22C0AA0F0F
S1131460BB1F21E030E069010A2E02C0CC0CDD1C58
S11314700A94E2F78B01000F111FE1E0F0E0EC0F9A
S1131480FD1FE00FF11F448555854C295D291196F8
S113149002C0220F331FAA95E2F7242B352B358780
S11314A024879F5F983078F2F39435E03F1508F075
S11314B0ADCF20E015C0822F90E0880F991FE1E0A6
S11314C0F0E0EC0FFD1FE80FF91F3485308301961F
S11314D0E1E0F0E0EC0FFD1FE80FF91F30832F5F10
S11314E0263048F36CE070E0CE0101960E94A50816
S11314F0E5E2F1E081818F54898F81E28A8F8081D6
S113150092E0980F9F709B8F90E00296807F9927BE
S113151095958795959587959595879595958795AF
S1131520805F8C8F8FE78D8F65E0CE0149960E9496
S1131530870820E015C0822F90E0880F991FE1E012
S1131540F0E0EC0FFD1FE80FF91F3585308301969D
S1131550E1E0F0E0EC0FFD1FE80FF91F30832F5F8F
S1131560263048F36CE070E0CE0101960E94A50895
S113157005E211E0F80181818055898F80819EE028
S1131580980F9F709B8F90E00E96807F992792957D
S113159082958F7089279F708927805F8C8F65E083
S11315A0CE0149960E948708F8018081845F808378
S11315B02EC0252F30E02A5F3F4F2138310538F502
S11315C090E018C0282F30E0492F50E0F901EE0FC9
S11315D0FF1FE20FF31FEE0FFF1FE40FF51FEE577F
S11315E0FE4FE491A1E0B0E0AC0FBD1FA40FB51F06
S11315F0EC939F5F963030F366E070E0CE01019685
S11316000E94A508E5E2F1E080818A5F80836D96FF
S11316100FB6F894DEBF0FBECDBFDF91CF911F91FF
S11316200F91FF90EF90DF90CF900895CF93DF93C9
S1131630FC0103C00E946B09FE01EF012196849115
S11316408111F8CFDF91CF91089590915A019F5F56
S11316509F71209158019217E1F3E92FF0E0E45AC9
S1131660FE4F80832FB7F89481E008C090935A010D
S1131670E1ECF0E080818062808380E08111F6CF2C
S11316802FBF0895CF93C82F8A3019F48DE00E949C
S1131690250B8C2F0E94250B80E090E0CF910895BC
S11316A0CF93DF93FC0103C00E94250BFE01EF01E1
S11316B0219680818111F8CFDF91CF910895CF9346
S11316C0DF93FC0103C00E94250BFE01EF0121966C
S11316D084918111F8CFDF91CF91089580915901C0
S11316E090915B01891761F08F5F8F71E82FF0E0B3
S11316F0E85CFE4F908180935901892F90E0089512
S11317008FEF9FEF0895CF93DF930E946E0BEC0150
S11317109923DCF30E94250BCE019927DF91CF9109
S113172008950F930FB7EF93FF93E0915801F09151
S11317305A01E395EF71EF1305C0F091C100FF7DED
S1131740F093C100E0935801F0E0E45AFE4FE081C9
S1131750E093C600FF91EF910FBF0F9118950F937F
S11317600FB79F939091C600EF93FF93E0915B01B5
S1131770F0915901E395EF71FE1731F0E0935B01AD
S1131780F0E0E85CFE4F9083FF91EF919F910FBFD3
S11317900F911895E89409C097FB3EF490958095B5
S11317A0709561957F4F8F4F9F4F9923A9F0F92F23
S11317B096E9BB279395F695879577956795B795A1
S11317C0F111F8CFFAF4BB0F11F460FF1BC06F5F87
S11317D07F4F8F4F9F4F16C0882311F096E911C099
S11317E0772321F09EE8872F762F05C0662371F0BA
S11317F096E8862F70E060E02AF09A95660F771FCE
S1131800881FDAF7880F9695879597F908950E94AF
S11318101A0C0C948B0C0E947D0C38F00E94840CE2
S113182020F0952311F00C94740C0C947A0C112470
S11318300C94BF0C0E949C0C70F3959FC1F3950F00
S113184050E0551F629FF001729FBB27F00DB11D40
S1131850639FAA27F00DB11DAA1F649F6627B00DD0
S1131860A11D661F829F2227B00DA11D621F739FB9
S1131870B00DA11D621F839FA00D611D221F749FC7
S11318803327A00D611D231F849F600D211D822F0E
S1131890762F6A2F11249F5750409AF0F1F0882335
S11318A04AF0EE0FFF1FBB1F661F771F881F915062
S11318B05040A9F79E3F510580F00C94740C0C9491
S11318C0BF0C5F3FE4F3983ED4F386957795679514
S11318D0B795F795E7959F5FC1F7FE2B880F911D8C
S11318E09695879597F9089597F99F6780E870E032
S11318F060E008959FEF80EC089500240A94161682
S1131900170618060906089500240A9412161306E9
S1131910140605060895092E0394000C11F4882377
S113192052F0BB0F40F4BF2B11F460FF04C06F5F93
S11319307F4F8F4F9F4F089557FD9058440F551F69
S113194059F05F3F71F04795880F97FB991F61F03D
S11319509F3F79F087950895121613061406551FB4
S1131960F2CF4695F1DF08C0161617061806991F20
S1131970F1CF86957105610508940895E894BB2715
S113198066277727CB0197F90895A0E1B0E0EBEC47
S1131990FCE00C9456107C011B016A01FC011782C7
S11319A01682838181FF44C39E012F5F3F4F39011B
S11319B0F7019381F10193FD859193FF81911F01BB
S11319C0882309F431C3853239F493FD859193FF5B
S11319D081911F01853239F4B70190E00E94A91169
S11319E056016501E5CF10E0512C912CFFE1F9156A
S11319F0D8F08B3279F038F4803279F08332A1F464
S1131A00F92DF0612EC08D3261F0803369F4292DF7
S1131A1021602DC0392D3260932E892D8460982E3B
S1131A202AC0E92DE86015C097FC2DC020ED280FD1
S1131A302A3088F496FE06C03AE0139F200D112444
S1131A40122F19C08AE0589E200D1124522EE92D20
S1131A50E0629E2E10C08E3231F496FCE5C2F92D60
S1131A60F0649F2E08C08C3621F4292D2068922E14
S1131A7002C0883641F4F10193FD859193FF819171
S1131A801F018111B3CF9BEB980F933020F4992D54
S1131A909061805E07C09BE9980F933008F066C19F
S1131AA0992D9F7E96FF16E09F73992E853619F423
S1131AB09064992E08C0863621F4392F3068932E0D
S1131AC002C01111115097FE07C01C3350F4442476
S1131AD04394410E27E00BC0183038F027E017E09C
S1131AE005C027E09CE3492E02C0212F412C56015A
S1131AF084E0A80EB11CF60160817181828193811A
S1131B00042DA3010E94A1106C01F981FC87F0FF50
S1131B1002C0F3FF06C091FC06C092FE06C000E2BC
S1131B2005C00DE203C00BE201C000E08C858C709F
S1131B3019F001115AC29BC297FE10C04C0CFC85CF
S1131B40F4FF04C08A81813309F44A94141474F5AF
S1131B5028E0241578F588E0482E2CC096FC2AC08D
S1131B60812F90E08C159D059CF03CEFC3163FEF50
S1131B70D30674F0892D8068982E0AC0E2E0F0E064
S1131B80EC0FFD1FE10FF11D8081803319F411501A
S1131B901111F4CF97FE0EC044244394410E812FBB
S1131BA090E0C816D9062CF41C1904C044244394AC
S1131BB001C010E097FE06C01C141D0434F4C601D5
S1131BC0019605C085E090E002C081E090E001113B
S1131BD00196112331F0212F30E02F5F3F4F820F08
S1131BE0931F252D30E08217930714F4581A01C06F
S1131BF0512C892D897049F4552039F0B70180E2C0
S1131C0090E00E94A9115A94F7CF002329F0B7015C
S1131C10802F90E00E94A91193FC09C0552039F04F
S1131C20B70180E390E00E94A9115A94F7CF97FE80
S1131C304CC04601D7FE02C0812C912CC6018819E4
S1131C409909F301E80FF91FFE87ED87960124191E
S1131C503109388B2F87012F10E011950195110957
S1131C603FEF8316930629F4B7018EE290E00E94B9
S1131C70A911C814D9044CF08F8598898815990541
S1131C8024F4ED85FE85818101C080E3F1E08F1AA3
S1131C9091082D853E852F5F3F4F3E872D87801607
S1131CA091062CF0B70190E00E94A911D9CFC81475
S1131CB0D90441F49A81963320F4953319F43C8580
S1131CC034FF81E3B70190E04EC08A81813319F07B
S1131CD09C859F7E9C87B70190E00E94A9111111F9
S1131CE005C094FC18C085E690E017C0B7018EE2E9
S1131CF090E00E94A9111E5F82E001E0080FF30149
S1131D00E80FF11D8081B70190E00E94A911802F96
S1131D100113F3CFE6CF85E490E0B7010E94A91147
S1131D20D7FC06C0C114D10441F4EC85E4FF05C01E
S1131D30D194C194D1088DE201C08BE2B70190E047
S1131D400E94A91180E32AE0C216D1042CF08F5F0F
S1131D50FAE0CF1AD108F7CFB70190E00E94A91199
S1131D60B701C601C0960E94A91154C1833631F04F
S1131D70833779F0833509F056C020C0560132E02C
S1131D80A30EB11CF6018081898301E010E0630198
S1131D9012C05601F2E0AF0EB11CF601C080D18032
S1131DA096FE03C0612F70E002C06FEF7FEFC601A3
S1131DB00E9484118C01F92DFF7714C0560122E092
S1131DC0A20EB11CF601C080D18096FE03C0612F23
S1131DD070E002C06FEF7FEFC6010E9479118C01A1
S1131DE0F92DF0689F2EF3FD1AC0852D90E0081799
S1131DF01907A8F4B70180E290E00E94A9115A944F
S1131E00F4CFF60197FC859197FE81916F01B7019C
S1131E1090E00E94A91151105A9401501109011522
S1131E20110579F7F7C0843611F0893661F556014A
S1131E3097FE09C024E0A20EB11CF60160817181F5
S1131E40828193810AC0F2E0AF0EB11CF601608179
S1131E507181072E000C880B990BF92DFF769F2EAC
S1131E6097FF09C090958095709561957F4F8F4F2E
S1131E709F4FF0689F2E2AE030E0A3010E94FB11DF
S1131E80C82EC6183FC0092D853721F40F7E2AE0DD
S1131E9030E01DC0097F8F3691F018F4883559F071
S1131EA0C3C0803719F0883711F0BEC0006104FF49
S1131EB009C0046007C094FE08C0066006C028E09C
S1131EC030E005C020E130E002C020E132E05601FC
S1131ED007FF09C084E0A80EB11CF601608171817E
S1131EE08281938108C0F2E0AF0EB11CF6016081DB
S1131EF0718180E090E0A3010E94FB11C82EC618F6
S1131F000F77902E96FE0BC0092D0E7FC11650F44C
S1131F1094FE0AC092FC08C0092D0E7E05C0DC2C7C
S1131F20092D03C0DC2C01C0D12E04FF0DC0FE011D
S1131F30EC0DF11D8081803311F4097E09C002FF8C
S1131F4006C0D394D39404C0802F867809F0D39428
S1131F5003FD11C000FF06C01C2DD51480F4150D1F
S1131F601D190DC0D51458F4B70180E290E00E9409
S1131F70A911D394F7CFD51410F45D1801C0512CD6
S1131F8004FF10C0B70180E390E00E94A91102FF92
S1131F9017C001FD03C088E790E002C088E590E027
S1131FA0B7010CC0802F867859F001FF02C08BE284
S1131FB001C080E207FD8DE2B70190E00E94A91103
S1131FC0C11638F4B70180E390E00E94A9111150C2
S1131FD0F7CFCA94F301EC0DF11D8081B70190E0B5
S1131FE00E94A911C110F5CF15C0F4E0F51560F5F4
S1131FF084E0581A93FE1FC0011127C02C8523FFCB
S11320002AC008E610E0392D3071932EF80184912E
S1132010811124C0552009F4E4CCB70180E290E09A
S11320200E94A9115A94F6CFF7018681978126C0A0
S11320308FEF9FEF23C0B70180E290E00E94A911C7
S11320405A945110F8CFD8CF512CB701802F90E07B
S11320500E94A911D3CF0CE610E0D5CF9110805285
S1132060B70190E00E94A9110F5F1F4FCFCF23E06B
S1132070251510F483E0BDCF512CC0CF6096E2E16A
S11320800C94721097FB072E16F4009407D077FD7A
S113209009D00E948D1007FC05D03EF490958195DF
S11320A09F4F0895709561957F4F08952F923F92A9
S11320B04F925F926F927F928F929F92AF92BF9254
S11320C0CF92DF92EF92FF920F931F93CF93DF9300
S11320D0CDB7DEB7CA1BDB0B0FB6F894DEBF0FBE5D
S11320E0CDBF09942A88398848885F846E847D84AA
S11320F08C849B84AA84B984C884DF80EE80FD80AC
S11321000C811B81AA81B981CE0FD11D0FB6F89421
S1132110DEBF0FBECDBFED010895AA1BBB1B51E16D
S113212007C0AA1FBB1FA617B70710F0A61BB70B43
S1132130881F991F5A95A9F780959095BC01CD01E8
S11321400895283008F027E03327DA01990F311D6C
S113215087FD916000966105710539F432602E5F48
S11321603D9330E32A95E1F708959F3F30F080389E
S11321707105610509F03C5F3C5F3D93913008F0C7
S11321808068911DDF93CF931F930F93FF92EF927B
S1132190192F987F9695E92F96959695E90FFF2725
S11321A0E653FF4F99273327EE24FF24A701E701C5
S11321B005900894079428F4360FE71EF81E491F6B
S11321C0511D660F771F881F991F0694A1F705906C
S11321D0079428F4E70EF81E491F561FC11D770FF8
S11321E0881F991F661F0694A1F70590079428F489
S11321F0F80E491F561FC71FD11D880F991F661F50
S1132200771F0694A1F70590079420F4490F561FF1
S1132210C71FD81F990F661F771F881F0694A9F739
S113222084911095177041F0D695C79557954795A9
S1132230F794E7941A95C1F7E0E7F0E068941590F5
S1132240159135916591959105907FE27395E1180B
S1132250F10A430B560BC90BD009C0F7E10CF11E70
S1132260431F561FC91FD01D7EF4703311F48A9585
S1132270E6CFE894015030F0080F0AF40027021763
S113228008F4202F2395022F7A3328F079E37D93E5
S11322902A95E9F710C07D932A9589F606949795B7
S11322A06795379517951794E118F10A430B560B68
S11322B0C90BD00998F023957E9173957A3308F071
S11322C070E37C932013B8F77E9170617D9330F0B6
S11322D0839571E37D9370E32A95E1F71124EF90E0
S11322E0FF900F911F91CF91DF91992787FD9095D2
S11322F00895FC010590615070400110D8F7809555
S113230090958E0F9F1F0895FC01615070400190BD
S11323100110D8F7809590958E0F9F1F0895BB27C5
S1132320FB015527AA27880F991FAA1FA41710F08D
S1132330A41B83955051B9F7A05DAA3308F0A95D99
S1132340A193009779F7B111B1931192CB010C9439
S113235059120F931F93CF93DF93FB01238121FD28
S113236003C08FEF9FEF2CC022FF16C04681578118
S1132370248135814217530744F4A081B1819D0122
S11323802F5F3F4F318320838C93268137812F5FCA
S11323903F4F3783268314C08B01EC01FB0100847B
S11323A0F185E02D0995892BE1F6D80116968D91DA
S11323B09C911797019617969C938E931697CE012E
S11323C0DF91CF911F910F910895A0E0B0E0EBEE63
S11323D0F1E10C946610AE014B5F5F4FFA0161911D
S11323E07191AF0180917E0190917F010E94C50C93
S11323F0E2E00C948210FA01AA27283051F120312E
S113240081F1E8946F936E7F6E5F7F4F8F4F9F4F84
S1132410AF4FB1E03ED0B4E03CD0670F781F891FC6
S11324209A1FA11D680F791F8A1F911DA11D6A0F94
S1132430711D811D911DA11D20D009F468943F9147
S11324402AE0269F11243019305D3193DEF6CF0146
S11324500895462F4770405D4193B3E00FD0C9F70C
S1132460F6CF462F4F70405D4A3318F0495D31FD79
S11324704052419302D0A9F7EACFB4E0A6959795CC
S1132480879577956795BA95C9F7009761057105A2
S113249008959B01AC010A2E0694579547953795EC
S11324A02795BA95C9F7620F731F841F951FA01D46
S11324B00895DC01FC01672F71917723E1F73297CE
S11324C004C07C916D9370836291AE17BF07C8F30B
S11324D00895DB018F939F930E94C112BF91AF9126
S11324E0A29F800D911DA39F900DB29F900D11246A
S11324F00895A1E21A2EAA1BBB1BFD010DC0AA1F41
S1132500BB1FEE1FFF1FA217B307E407F50720F058
S1132510A21BB30BE40BF50B661F771F881F991FD3
S11325201A9469F760957095809590959B01AC011C
S1132530BD01CF010895052E97FB1EF400940E945F
S1132540B21257FD07D00E94791207FC03D04EF453
S11325500C94B21250954095309521953F4F4F4FB2
S11325605F4F089590958095709561957F4F8F4F3B
S11325709F4F08950E94CC12B7FF0895821B930BBE
S113258008950E94CC12A59F900DB49F900DA49F16
S1132590800D911D11240895A29FB001B39FC00125
S11325A0A39F700D811D1124911DB29F700D811D7B
S10D25B01124911D0895F894FFCF43
S11325BA8A012801340101000000030000000042DE
S11125CA0B830B0000257309252E3266430097
S9030000FC
